:020000040800F2
:10000000300400204901000885030008BF020008F1
:100010008103000891010008510D00080000000054
:10002000000000000000000000000000FD070008C4
:100030009501000800000000CF0600081109000823
:100040006301000863010008630100086301000800
:1000500063010008630100086301000863010008F0
:1000600063010008630100086301000863010008E0
:1000700063010008630100086301000863010008D0
:1000800063010008630100086301000863010008C0
:1000900063010008630100086301000863010008B0
:1000A00063010008630100086301000863010008A0
:1000B0007509000863010008630100086301000876
:1000C0006301000863010008630100086301000880
:1000D0006301000863010008630100086301000870
:1000E0006301000863010008630100086301000860
:1000F0006301000863010008630100086301000850
:10010000630100086301000863010008630100083F
:10011000630100086301000863010008630100082F
:10012000630100086301000863010008630100081F
:10013000DFF810D000F01AF800480047010E000860
:10014000AFF300803004002006488047064800478F
:10015000FEE7FEE7FEE7FEE7FEE7FEE7FEE7FEE777
:10016000FEE7FEE71509000831010008064C074DBF
:1001700006E0E06840F0010394E807009847103477
:10018000AC42F6D3FFF7D8FF30160008501600082F
:1001900000BFFEE770472DE9F0410246002500262A
:1001A000002000230024002791F803C00CF00F0565
:1001B00091F803C00CF0100CBCF1000F03D091F8C3
:1001C00002C04CEA050591F800C0BCF1000F31D027
:1001D000146800202BE04FF0010C0CFA00F3B1F88A
:1001E00000C00CEA03069E4220D183004FF00F0CA2
:1001F0000CFA03F7BC4305FA03FC4CEA040491F83B
:1002000003C0BCF1280F06D14FF0010C0CFA00FC22
:10021000C2F814C00AE091F803C0BCF1480F05D140
:100220004FF0010C0CFA00FCC2F810C0401C08286A
:10023000D1D31460B1F800C0BCF1FF0F34DD5468B5
:1002400000202EE000F1080C4FF0010808FA0CF332
:10025000B1F800C00CEA03069E4221D183004FF0A2
:100260000F0C0CFA03F7BC4305FA03FC4CEA040438
:1002700091F803C0BCF1280F05D100F1080C08FA71
:100280000CF8C2F8148091F803C0BCF1480F07D1F4
:1002900000F1080C4FF0010808FA0CF8C2F81080C1
:1002A000401C0828CED35460BDE8F08141617047FE
:1002B000016170470AB1016100E04161704700BF10
:1002C000FEE7000000B589B00121052000F010FA1A
:1002D0003020ADF8200010208DF8230003208DF889
:1002E000220008A92448FFF756FF4020ADF820005F
:1002F00018208DF8230003208DF8220008A91E483D
:10030000FFF749FF10211C48FFF7D2FF20211A48B0
:10031000FFF7CCFF0121022000F0DAF940F2CF20F4
:10032000ADF814006320ADF818000020ADF81A00F5
:10033000ADF8160005A9114800F004FC6020ADF8E6
:1003400004000120ADF806000020ADF80A00ADF869
:100350000C0001A9094800F09DFB0821074800F0A6
:10036000E5FB0121054800F05FFB0121034800F097
:100370006AFB09B000BD0000000801400004004015
:1003800000BFFEE77047000070B5002100230F2278
:10039000C47804B3154C246804F4E064C4F5E06444
:1003A000210AC1F10403CA40447804FA03F18478B5
:1003B0001440214309010E4C0678A155047804F03D
:1003C0001F050124AC4005786D11AD0005F1E02555
:1003D000C5F8004109E0047804F01F050124AC4091
:1003E000044D0678761145F8264070BD0CED00E00E
:1003F00000E400E080E100E002490143024A1160AC
:10040000704700000000FA050CED00E070B5002414
:100410000EE00021204600F0D6F8002504E0002080
:1004200000F045F9681CC5B2802DF8DB601CC4B231
:10043000082CEEDB70BD000008B50121082000F09B
:1004400057F94FF44070ADF8000014208DF8030008
:1004500003208DF8020069460648FFF79CFE012242
:1004600011020448FFF726FF012251020148FFF75D
:1004700021FF08BD000C014070B50546002415E0C1
:100480008020204100EA05024FF400710E48FFF77A
:1004900011FF012211020C48FFF70CFF00224FF45C
:1004A00080710948FFF706FF601CC4B2082CE7DB27
:1004B000012211020448FFF7FDFE00224FF4807173
:1004C0000148FFF7F7FE70BD000C014010B5012296
:1004D00051020A48FFF7EEFE012211020748FFF71A
:1004E000E9FE00224FF400710448FFF7E3FE00220A
:1004F0004FF480710148FFF7DDFE10BD000C014094
:1005000010B500224FF400710648FFF7D3FE012218
:1005100011020448FFF7CEFE012251020148FFF705
:10052000C9FE10BD000C014010B5FFF785FFAE20DD
:1005300000F0ADF8D52000F0AAF8802000F0A7F870
:10054000A82000F0A4F83F2000F0A1F8D32000F08C
:100550009EF8002000F09BF8402000F098F8A120C1
:1005600000F095F8C82000F092F8DA2000F08FF83B
:10057000122000F08CF8812000F089F8CF2000F0E4
:1005800086F8D92000F083F8F12000F080F8DB2015
:1005900000F07DF8302000F07AF8A42000F077F821
:1005A000A62000F074F88D2000F071F8142000F0FF
:1005B0006EF8AF2000F06BF8FFF728FF0021084627
:1005C00000F001F810BD70B504460D4605F1B0010C
:1005D000C8B200F05CF804F00F0000F058F81021E9
:1005E00041EA141000F053F870BD00002DE9F0410D
:1005F00006460C461746A7F1200000F0FF087F2EA4
:1006000002DD0026A01CC4B221463046FFF7DBFF06
:10061000002507E00F4901EB0811485D00F047F89D
:10062000681CC5B2082DF5DB601CC1B23046FFF76F
:10063000CAFF002509E0074901EB081205F108018E
:10064000505C00F034F8681CC5B2082DF3DBBDE83F
:10065000F0810000400E00082DE9F04104460F46ED
:10066000154600260EE0AA5D39462046FFF7BEFF7C
:1006700004F10800C4B2782C02DD0024B81CC7B213
:10068000701CC6B2A85D0028EDD1BDE8F08110B5A0
:100690000446FFF71BFF7820FFF7EEFE0020FFF770
:1006A000EBFE2046FFF7E8FEFFF72AFF10BD10B56E
:1006B0000446FFF70BFF7820FFF7DEFE4020FFF730
:1006C000DBFE2046FFF7D8FEFFF71AFF10BD70478C
:1006D00029B1064AD2690243044BDA6104E0034AB5
:1006E000D2698243014BDA6170470000001002407A
:1006F00029B1064A92690243044B9A6104E0034A15
:1007000092698243014B9A617047000000100240D9
:1007100030B500210022002400232D4D6D6805F026
:100720000C0121B1042905D0082923D105E0294D68
:10073000056022E0274D05601FE0254D6D6805F43A
:100740007012234D6D6805F48034022505EB92424A
:100750001CB9214D554305600BE01D4D6D6805F436
:1007600000351DB11C4D5543056002E0194D554340
:10077000056002E0174D056000BF00BF144D6D68B5
:1007800005F0F0010909154D6B5C0568DD40456019
:100790000F4D6D6805F4E061090A104D6B5C45680A
:1007A000DD4085600A4D6D6805F46051C90A0B4D46
:1007B0006B5C4568DD40C560054D6D6805F44041E2
:1007C000890B074D6B5CC568B5FBF3F5056130BD62
:1007D0000010024000127A0000093D001B000020BA
:1007E0002B00002001460020034A506820F003003F
:1007F000084350607047000000100240704710B579
:1008000000F002F810BD00000CB50020019000902F
:100810003348006840F480303149086000BF3048F8
:10082000006800F4003000900198401C019000988E
:1008300018B90198B0F5A06FF1D12948006800F40B
:10084000003010B10120009001E0002000900098DD
:10085000012843D12348006840F010002149086076
:100860000846006820F0030008600846006840F071
:10087000020008601A484068194948600846406804
:1008800048600846406840F4806048600846406818
:1008900020F47C1048600846406840F4E810486046
:1008A0000846006840F08070086000BF0C4800688F
:1008B00000F000700028F9D00948406820F00300DB
:1008C000074948600846406840F00200486000BFA1
:1008D0000348406800F00C000828F9D10CBD000066
:1008E0000010024000200240042808D14FF0E0210F
:1008F000096941F004014FF0E022116107E04FF077
:10090000E021096921F004014FF0E02211617047F4
:100910007047000010B51348006840F0010011490D
:10092000086008464068104908400E49486008467B
:1009300000680E4908400B4908600846006820F42A
:10094000802008600846406820F4FE0048604FF4AC
:100950001F008860FFF753FF4FF0006004490860F4
:1009600010BD0000001002400000FFF8FFFFF6FE7F
:1009700008ED00E010B50121880700F070F8F0B133
:100980000121880700F05CF80D4801880D4800F04F
:10099000D6F80B4800880C4991F900100844084922
:1009A000088008460088642802DBFF20064908709A
:1009B00003480088002802DC01200349087010BDAC
:1009C00018000020000400401A0000201FB501217B
:1009D0000846FFF77DFE41F61F40ADF80400C72032
:1009E000ADF808000020ADF80600ADF80A0001A936
:1009F0004FF0804000F0A6F801221146900700F069
:100A00003FF81C208DF8000002208DF801008DF8C1
:100A1000020001208DF803006846FFF7B5FC0121B4
:100A2000880700F010F81FBD21B1028842F0800253
:100A3000028004E002884FF67F731A4002807047FC
:100A4000CA430282704721B1028842F0010202804B
:100A500004E002884FF6FE731A400280704730B5FA
:100A60000246002000230024158A05EA0103958927
:100A700005EA010413B10CB1012000E0002030BDF3
:100A80001AB183890B43838102E083898B4383817D
:100A90007047000070B5002400220023058C4FF63B
:100AA000FE7635400584028C8388048B4FF68F7563
:100AB0002C40B51E2C400D882C43751E2A400D89F4
:100AC0002A434D882A43144DA8420BD0134DA84207
:100AD00008D0134DA84205D0124DA84202D0124DA5
:100AE000A84213D14FF6F7752A404D892A434FF695
:100AF000FB752A408D882A434FF6FF652B404FF641
:100B0000FF552B408D892B43CD892B438380048354
:100B1000CD888586028470BD002C014000340140E0
:100B20000040014000440140004801400A460021C5
:100B3000018B4FF6F773194011430183704781868B
:100B400070470000002202881D4B98420ED01D4BBA
:100B500098420BD0B0F1804F08D01B4B984205D083
:100B60001A4B984202D01A4B984204D14FF68F7319
:100B70001A404B881A43174B984207D0164B98429D
:100B800004D04FF6FF431A40CB881A4302808B886B
:100B900083850B8803850A4B98420BD0094B9842FA
:100BA00008D00E4B984205D00D4B984202D00D4B09
:100BB000984201D10B7A038601238382704700009B
:100BC000002C0140003401400004004000080040B7
:100BD000000C0040001000400014004000400140A4
:100BE000004401400048014010B586B00446012190
:100BF00044F20500FFF77CFD4FF40070ADF81400DF
:100C000003208DF8160018208DF8170005A912484A
:100C1000FFF7C1FA4FF48060ADF8140004208DF89E
:100C2000170005A90C48FFF7B6FA01940020ADF8AB
:100C30000800ADF80A00ADF80C00ADF810000C206B
:100C4000ADF80E0001A9054800F016F8012103488F
:100C500000F006F806B010BD000801400038014061
:100C600021B1828942F40052828104E082894DF6EA
:100C7000FF731A40828170472DE9F04786B0054620
:100C80000E460024A24600BFA1460027B08900B14D
:100C900000BF2F462C8A4CF6FF700440F0880443B6
:100CA0002C82AC894EF6F3100440B0883189084399
:100CB000718908430443AC81AC8A4FF6FF4004407D
:100CC000B0890443AC8201A8FFF722FD1F48874288
:100CD00002D1DDF810A001E0DDF80CA0A88900F435
:100CE000004040B10AEBCA0000EB0A10316849002D
:100CF000B0FBF1F807E00AEBCA0000EB0A1031681C
:100D00008900B0FBF1F86420B8FBF0F00401200981
:100D1000642101FB1089A88900F4004040B1322011
:100D200000EBC900B0FBF1F000F00700044308E05D
:100D3000322000EB09106421B0FBF1F000F00F004D
:100D400004432C8106B0BDE8F08700000038014064
:100D500000BFFEE702E008C8121F08C1002AFAD14E
:100D600070477047002001E001C1121F002AFBD12B
:100D70007047000010B50420FFF7B6FD0948006871
:100D80000949B0FBF1F0094908700846007800EB0A
:100D90004001C1EBC0104FF6FF7101EAC0000449E9
:100DA000088010BD0000002000127A00140000200E
:100DB000160000200146114A12884A434FF0E023F2
:100DC0005A6100229A611A46126942F001021A61C0
:100DD00000BF4FF0E022106900F001021AB100F4E8
:100DE0008032002AF5D04FF0E022126922F0010291
:100DF0004FF0E0231A6100229A617047160000202C
:100E00000020FFF7EFFC4FF4A060FFF7F5FAFFF7C3
:100E10008BFB0AA200210846FFF71EFCFFF752FADF
:100E20004FF41650FFF7E0FEFFF7A4FFFFF7CEFDEB
:100E300003E04FF47A70FFF7BDFFFAE73132330079
:100E400000000000000000000000000000000000A2
:100E5000000000F800000000000000333000000037
:100E600000100C06100C060000000000000000003E
:100E700040C07840C0784000043F04043F040400B0
:100E8000007088FC08300000001820FF211E0000C0
:100E9000F008F000E018000000211C031E211E00D5
:100EA00000F00888700000001E212324192721105B
:100EB00010160E00000000000000000000000000FE
:100EC000000000E0180402000000000718204000A5
:100ED00000020418E0000000004020180700000095
:100EE000404080F0804040000202010F01020200F9
:100EF000000000F0000000000101011F01010100DD
:100F0000000000000000000080B070000000000041
:100F100000000000000000000001010101010101CA
:100F20000000000000000000003030000000000061
:100F30000000000080601804006018060100000036
:100F400000E010080810E000000F102020100F0033
:100F5000001010F8000000000020203F20200000BA
:100F60000070080808887000003028242221300012
:100F700000300888884830000018202020110E001A
:100F80000000C02010F8000000070424243F2400C3
:100F900000F80888880808000019212020110E0098
:100FA00000E0108888180000000F112020110E00AA
:100FB00000380808C83808000000003F00000000A2
:100FC0000070880808887000001C222121221C0063
:100FD00000E010080810E0000000312222110F008C
:100FE000000000C0C0000000000000303000000021
:100FF0000000008000000000000080600000000091
:1010000000008040201008000001020408102000A9
:1010100040404040404040000404040404040400F4
:101020000008102040800000002010080402010089
:10103000007048080808F000000000303601000089
:10104000C030C828E810E0000718272423140B003C
:101050000000C038E0000000203C230202273820B6
:1010600008F8888888700000203F202020110E009A
:10107000001CE018040830000000071820201000B1
:1010800008F808080810E000203F202020100F007A
:1010900008F88888E8081000203F20202320180046
:1010A00008F88888E8081000203F200003000000AE
:1010B000C03008080838000007182020221E02004F
:1010C00008F808000008F808203F210101213F200E
:1010D000000808F8080800000020203F2020000039
:1010E00000000808F8080800C08080807F00000029
:1010F00008F888C028180800203F20012638200062
:1011000008F8080000000000203F202020203000C8
:1011100008F8F800F8F80800203F003F003F2000E2
:1011200008F830C00008F808203F200007183F00EA
:10113000E01008080810E0000F10202020100F0019
:1011400008F808080808F000203F2101010100000C
:10115000E01008080810E0000F18242438504F0051
:1011600008F8888888887000203F2000030C302011
:1011700000708808080838000038202121221C004F
:10118000180808F8080818000000203F2000000098
:1011900008F808000008F808001F202020201F0081
:1011A0000878880000C83808000007380E010000E1
:1011B000F80800F80008F800033C0700073C0300AB
:1011C000081868808068180820302C03032C302011
:1011D0000838C800C83808000000203F2000000080
:1011E00010080808C83808002038262120201800D8
:1011F000000000FE020202000000007F40404000AC
:10120000000C30C000000000000000010638C000E3
:1012100000020202FE000000004040407F0000008B
:1012200000000402020204000000000000000000B0
:1012300000000000000000008080808080808080AE
:101240000002020400000000000000000000000096
:1012500000008080808000000019242222223F208C
:1012600008F8008080000000003F112020110E00CF
:101270000000008080800000000E1120202011005E
:10128000000000808088F800000E112020103F2010
:101290000000808080800000001F22222222130094
:1012A000008080F0888888180020203F20200000DF
:1012B0000000808080808000006B94949493600094
:1012C00008F8008080800000203F210000203F209F
:1012D00000809898000000000020203F202000009F
:1012E000000000809898000000C08080807F00008F
:1012F00008F8000080808000203F24022D3020006C
:10130000000808F8000000000020203F2020000016
:101310008080808080808000203F20003F20003F30
:101320008080008080800000203F210000203F203E
:101330000000808080800000001F202020201F00EF
:10134000808000808000000080FFA12020110E001E
:101350000000008080808000000E112020A0FF800F
:10136000808080008080800020203F2120000100BC
:101370000000808080808000003324242424190011
:10138000008080E0808000000000001F202000001E
:101390008080000000808000001F202020103F205F
:1013A000808080000080808000010E3008060100EF
:1013B00080800080008080800F300C030C300F0094
:1013C00000808000808080000020312E0E312000BF
:1013D000808080000080808080818E7018060100EF
:1013E00000808080808080000021302C222130000D
:1013F00000000000807C020200000000003F40402E
:1014000000000000FF00000000000000FF000000DE
:101410000002027C800000000040403F000000000D
:1014200000060101020204040000000000000000A8
:1014300000202020A06000FF6080402018000000F5
:10144000000000000000000000000000000000009C
:10145000201008060140807F0001020408101000DF
:10146000000000000000000000000000000000007C
:10147000008060F80710901011161010D0100000B6
:10148000000000000000000000000000000000005C
:10149000010000FF4040415E4040704E414040002E
:1014A000000000000000000000000000000000003C
:1014B0001010D0FF905020504C434C502040400022
:1014C000000000000000000000000000000000001C
:1014D000040300FF00414458414E6058474040001B
:1014E00000000000000000000000000000000000FC
:1014F0001060028C00FE02F202FE00F800FF000005
:1015000000000000000000000000000000000000DB
:1015100004047E018047300F10270047807F0000C1
:1015200000000000000000000000000000000000BB
:10153000404042CC00808888FF8888FF88888000EF
:10154000000000000000000000000000000000009B
:101550000040201F2040504C4340405F404040002E
:10156000000000000000000000000000000000007B
:1015700000007C40404040FF40404040FC000000F4
:10158000000000000000000000000000000000005B
:10159000007C40404040407F4040404040FC0000D4
:1015A000000000000000000000000000000000003B
:1015B00000F80122A0A2A222FE22AA3202FE00000E
:1015C000000000000000000000000000000000001B
:1015D00000FF0010130A4B20170C133880FF000087
:1015E00000000000000000000000000000000000FB
:1015F000008060F80704E4A4A4BFA4A4E4040000ED
:1016000000000000000000000000000000000000DA
:10161000010000FF40407F4A4A4A4A4A7F4040005A
:1016200000000000000000000000000000000000BA
:10163000501600080000002030000000540D000883
:10164000801600083000002000040000640D00082F
:1016500000A24A0400000000000000000102030490
:10166000060708090000000000000100000000015A
:101670000203040102030406070809020406080025
:0400000508000131BD
:00000001FF
