:020000040800F2
:10000000E0070020490100084507000881060008B4
:1000100041070008A504000865170008000000005B
:10002000000000000000000000000000990D000822
:10003000A904000800000000690C00086101000824
:100040006301000863010008630100086301000800
:1000500063010008630100086301000863010008F0
:1000600063010008630100086301000863010008E0
:1000700063010008630100086301000863010008D0
:1000800063010008630100086301000863010008C0
:1000900063010008630100086301000863010008B0
:1000A00063010008B1110008630100086301000842
:1000B0000D120008630100086301000863010008D5
:1000C0006301000863010008630100086301000880
:1000D0006301000863010008630100086301000870
:1000E0006301000863010008630100086301000860
:1000F0006301000863010008630100086301000850
:10010000630100086301000863010008630100083F
:10011000630100086301000863010008630100082F
:10012000630100086301000863010008630100081F
:10013000DFF810D000F080F900480047611900088E
:10014000AFF30080E00700200648804706480047DC
:10015000FEE7FEE7FEE7FEE7FEE7FEE7FEE7FEE777
:10016000FEE7FEE7AD0E000831010008F0B480EABA
:100170000102D40F4200B2EB410F02D20246084600
:1001800011464A0042D0C30DDDB2C1F3C752AD1AC9
:10019000202D35DAC1F3160141F4000204B15242B8
:1001A000C5F1200602FA06F12A411044B3EBD05FF4
:1001B00023D0C4B1012DA0EBC35009DCF0BC4FF03B
:1001C000004202EAC352DBB200F5000000F005B9BC
:1001D000400000F1807000EBC350A0F1807040EA55
:1001E000D170490009E0490841EAC071A0EBC35051
:1001F00000F50000400800EBC350F0BC00F0E4B88C
:100200006142012202EB4101001BF6E7F0BC70479E
:1002100081F00041AAE780F00040A7E780EA0102F0
:1002200010B502F00043400022D04A001FD0010E5A
:1002300001EB1261C0F35600C2F3560240F4000015
:1002400042F40002A0FB022000047F39140400D015
:10025000401C50EA124001D44000491EC2B20C06B4
:1002600004EBD010401C4008802A02D003E000209C
:1002700010BD20F00100002900DA0020184310BD55
:1002800030B480EA010202F0004530F0004221F073
:10029000004013D090B1C30DD40DC2F31601C0F3CA
:1002A0001600E41A41F4000140F400027D3491424A
:1002B00001D3641C00E04900002C02DA30BC0020AD
:1002C00070474FF400000023914201D3891A034381
:1002D00040084FEA4101F7D151B1914202D14FF0AC
:1002E000004105E002D24FF0010101E06FF0010191
:1002F00003EBC450284430BC00F066B8C10F80EA5C
:10030000E0700844CA079623002100F066B89623DF
:100310000022114600F061B800F0004220F00040D9
:10032000C10DC0F3160040F400007F2901DA00205F
:100330007047962903DCC1F19601C84001E0963967
:100340008840002AF4D04042704720F00040C10DA0
:10035000C0F3160040F400007F2901DA0020704746
:10036000962903DCC1F19601C84070479639884050
:1003700070470000002801DBC0F10040002901DBCC
:10038000C1F1004181427047002801DBC0F100400B
:10039000002901DBC1F100418842704730B50B46AE
:1003A000014600202022012409E021FA02F59D42A5
:1003B00005D303FA02F5491B04FA02F52844151E79
:1003C000A2F10102F1DC30BD0029A8BF7047401C3A
:1003D000490008BF20F00100704710B4B0FA80FC5B
:1003E00000FA0CF050EA010404BF10BC704749B198
:1003F000CCF1200421FA04F411FA0CF118BF012108
:1004000021430843A3EB0C01CB1D4FEA00614FEAE7
:10041000102042BF002010BC704700EBC3501044B6
:100420000029A4BF10BC7047401C490008BF20F041
:10043000010010BC70470000064C074D06E0E06864
:1004400040F0010394E8070098471034AC42F6D31B
:10045000FFF772FEFC2100081C22000830B51029AD
:1004600001DB3F2900DD30BDA1F11003DD1703EBF7
:100470005575C5F3C702DD1703EB5575ED10A3EBFA
:10048000C505ECB2064B03EBC2131B5C0125A5406E
:100490002B43034D05EBC2152B5400BFE3E70000CF
:1004A000C000002000BFFEE77047000000B589B023
:1004B0000121084600F0DAFB0121042000F0E6FBF0
:1004C0000220ADF8200004208DF8230008A921485F
:1004D00000F042F840F21F30ADF814004FF6FF7004
:1004E000ADF818000020ADF81A00ADF8160005A907
:1004F0004FF0804001F01EF80420ADF80800002005
:10050000ADF80A000120ADF80C000020ADF80E0097
:100510000F20ADF8100002A94FF0804000F026FF38
:1005200001220421080700F077FF1C208DF8040049
:1005300001208DF8050000208DF8060001208DF8BF
:10054000070001A800F000F90121880700F0EDFE86
:1005500009B000BD000801402DE9F0410246002528
:100560000026002000230024002791F803C00CF08F
:100570000F0591F803C00CF0100CBCF1000F03D074
:1005800091F802C04CEA050591F800C0BCF1000FDB
:1005900031D0146800202BE04FF0010C0CFA00F36E
:1005A000B1F800C00CEA03069E4220D183004FF050
:1005B0000F0C0CFA03F7BC4305FA03FC4CEA0404E5
:1005C00091F803C0BCF1280F06D14FF0010C0CFAD2
:1005D00000FCC2F814C00AE091F803C0BCF1480F57
:1005E00005D14FF0010C0CFA00FCC2F810C0401C01
:1005F0000828D1D31460B1F800C0BCF1FF0F34DD7E
:10060000546800202EE000F1080C4FF0010808FAB1
:100610000CF3B1F800C00CEA03069E4221D183001E
:100620004FF00F0C0CFA03F7BC4305FA03FC4CEA3D
:10063000040491F803C0BCF1280F05D100F1080CA7
:1006400008FA0CF8C2F8148091F803C0BCF1480F06
:1006500007D100F1080C4FF0010808FA0CF8C2F8B5
:100660001080401C0828CED35460BDE8F081416161
:100670007047016170470AB1016100E04161704754
:1006800000BFFEE700B589B00121052000F0FEFAA9
:100690003020ADF8200010208DF8230003208DF8C5
:1006A000220008A92448FFF757FF4020ADF820009A
:1006B00018208DF8230003208DF8220008A91E4879
:1006C000FFF74AFF10211C48FFF7D3FF20211A48EB
:1006D000FFF7CDFF0121022000F0C8FA40F21F30E1
:1006E000ADF814006320ADF818000020ADF81A0032
:1006F000ADF8160005A9114800F01CFF6020ADF808
:1007000004000120ADF806000020ADF80A00ADF8A5
:100710000C0001A9094800F089FE0821074800F0F3
:10072000D1FE0121054800F0F1FD0121034800F050
:10073000FCFD09B000BD00000008014000040040BD
:1007400000BFFEE77047000070B5002100230F22B4
:10075000C47804B3154C246804F4E064C4F5E06480
:10076000210AC1F10403CA40447804FA03F18478F1
:100770001440214309010E4C0678A155047804F079
:100780001F050124AC4005786D11AD0005F1E02591
:10079000C5F8004109E0047804F01F050124AC40CD
:1007A000044D0678761145F8264070BD0CED00E04A
:1007B00000E400E080E100E002490143024A1160E8
:1007C000704700000000FA050CED00E070B5002451
:1007D0000EE00021204600F05CF9002504E0002036
:1007E00000F032FA681CC5B2802DF8DB601CC4B280
:1007F000082CEEDB70BD0000002004E03F21034A1E
:100800001154411CC8B28028F8DB7047400000201A
:100810002DE9F047804637494046FFF7B5FD01D244
:10082000DFF8D08000214046FFF7A4FD01D24FF051
:10083000000831494046FFF7F1FC05462D49FFF716
:100840001FFD0446FFF781FDC0F13F00C6B2002046
:1008500005E02A4A411C515C1154411CC8B27F2852
:10086000F7DB264880F87F6000200CE0002106E0DE
:100870000022234B03EBC0135A544A1CD1B28029E7
:10088000F6DB411CC8B20628F0DB00242BE01B4835
:10089000005D002825DD1948015D2046FFF7DEFDDB
:1008A000002C1EDD601E1549085C002819DD601E45
:1008B000085C47B20846005D4FFA80F9B94501DD92
:1008C000012001E04FF0FF3082463D4606E0E9B2EC
:1008D0002046FFF7C3FD05EB0A0045B24D45F6D1B2
:1008E00000BF601CC4B2802CD1DB00F081F9BDE8F0
:1008F000F08700000000C84200003C424000002099
:10090000C000002008B50121082000F0BFF94FF415
:100910004070ADF8000014208DF8030003208DF81E
:10092000020069460648FFF717FE0122110204483B
:10093000FFF7A1FE012251020148FFF79CFE08BD0E
:10094000000C014070B50546002415E080202041D0
:1009500000EA05024FF400710E48FFF78CFE0122F9
:1009600011020C48FFF787FE00224FF480710948FE
:10097000FFF781FE601CC4B2082CE7DB01221102E4
:100980000448FFF778FE00224FF480710148FFF71A
:1009900072FE70BD000C014010B5012251020A48E0
:1009A000FFF769FE012211020748FFF764FE0022EB
:1009B0004FF400710448FFF75EFE00224FF480718F
:1009C0000148FFF758FE10BD000C014010B5002291
:1009D0004FF400710648FFF74EFE01221102044851
:1009E000FFF749FE012251020148FFF744FE10BD06
:1009F000000C014010B5FFF785FFAE2000F014F9A0
:100A0000D52000F011F9802000F00EF9A82000F0A8
:100A10000BF93F2000F008F9D32000F005F9002081
:100A200000F002F9402000F0FFF8A12000F0FCF8EF
:100A3000C82000F0F9F8DA2000F0F6F8122000F0F3
:100A4000F3F8812000F0F0F8CF2000F0EDF8D92085
:100A500000F0EAF8F12000F0E7F8DB2000F0E4F81D
:100A6000302000F0E1F8A42000F0DEF8A62000F02D
:100A7000DBF88D2000F0D8F8142000F0D5F8AF2076
:100A800000F0D2F8FFF7A2FE0021084600F001F8BE
:100A900010BD70B504460D4605F1B001C8B200F0B6
:100AA000C3F804F00F0000F0BFF8102141EA141061
:100AB00000F0BAF870BD00002DE9F04106460C4682
:100AC0001746A7F1200000F0FF087F2E02DD002668
:100AD000A01CC4B221463046FFF7DBFF002507E02B
:100AE0000F4901EB0811485D00F0AEF8681CC5B273
:100AF000082DF5DB601CC1B23046FFF7CAFF0025A8
:100B000009E0074901EB081205F10801505C00F00B
:100B10009BF8681CC5B2082DF3DBBDE8F08100002E
:100B20000A1A00082DE9F0470646894617461D4671
:100B30004FF00008C246002F0ADA7F422D224946B4
:100B40003046FFF7B9FF06F10800C6B2681EC5B20D
:100B500000242DE0281B401EC1B20A2000F04AFFED
:100B6000B7FBF0F00A21B0FBF1F201FB1208BAF179
:100B7000000F10D1681EA0420DDDB8F1000F08D1A2
:100B8000082101FB0461C8B220224946FFF794FF07
:100B90000CE04FF0010A08F13001CAB2082101FB54
:100BA0000461C8B24946FFF787FF00BF601CC4B2AA
:100BB000AC42CFDBBDE8F0872DE9F04104460F469B
:100BC000154600260EE0AA5D39462046FFF774FF61
:100BD00004F10800C4B2782C02DD0024B81CC7B2AE
:100BE000701CC6B2A85D0028EDD1BDE8F081000000
:100BF00070B5002412E0A01CC1B20020FFF749FF2D
:100C0000002507E0074901EBC411485D00F01CF81E
:100C1000681CC5B2802DF5DB601CC4B2062CEADB73
:100C200070BD0000C000002010B50446FFF7B4FE00
:100C30007820FFF787FE0020FFF784FE2046FFF7AD
:100C400081FEFFF7C3FE10BD10B50446FFF7A4FEFA
:100C50007820FFF777FE4020FFF774FE2046FFF76D
:100C600071FEFFF7B3FE10BD7047000029B1064AC0
:100C7000D2690243044BDA6104E0034AD269824339
:100C8000014BDA61704700000010024029B1064AAA
:100C900092690243044B9A6104E0034A92698243D9
:100CA000014B9A61704700000010024030B50021EE
:100CB0000022002400232D4D6D6805F00C0121B1A8
:100CC000042905D0082923D105E0294D056022E03B
:100CD000274D05601FE0254D6D6805F47012234D0A
:100CE0006D6805F48034022505EB92421CB9214D54
:100CF000554305600BE01D4D6D6805F400351DB1D1
:100D00001C4D5543056002E0194D5543056002E056
:100D1000174D056000BF00BF144D6D6805F0F00170
:100D20000909154D6B5C0568DD4045600F4D6D6828
:100D300005F4E061090A104D6B5C4568DD40856093
:100D40000A4D6D6805F46051C90A0B4D6B5C45682E
:100D5000DD40C560054D6D6805F44041890B074DC8
:100D60006B5CC568B5FBF3F5056130BD0010024052
:100D700000127A0000093D00270000203700002003
:100D800001460020034A506820F0030008435060E9
:100D90007047000000100240704710B500F002F8E4
:100DA00010BD00000CB50020019000903348006891
:100DB00040F480303149086000BF3048006800F4DA
:100DC000003000900198401C0190009818B90198DB
:100DD000B0F5A06FF1D12948006800F4003010B1DF
:100DE0000120009001E0002000900098012843D1EC
:100DF0002348006840F01000214908600846006858
:100E000020F0030008600846006840F00200086017
:100E10001A484068194948600846406848600846D2
:100E2000406840F4806048600846406820F47C10C8
:100E300048600846406840F4E8104860084600688A
:100E400040F08070086000BF0C48006800F000703F
:100E50000028F9D00948406820F00300074948609D
:100E60000846406840F00200486000BF0348406800
:100E700000F00C000828F9D10CBD00000010024061
:100E800000200240042808D14FF0E021096941F018
:100E900004014FF0E022116107E04FF0E021096901
:100EA00021F004014FF0E0221161704710B51348A2
:100EB000006840F001001149086008464068104988
:100EC00008400E494860084600680E4908400B4932
:100ED00008600846006820F48020086008464068E2
:100EE00020F4FE0048604FF41F008860FFF755FFB4
:100EF0004FF000600449086010BD0000001002407F
:100F00000000FFF8FFFFF6FE08ED00E0F0B50C462C
:100F1000154600220021068C4FF6FE773E400684DF
:100F2000028B018C4FF60C7632407E1C06EA0316CB
:100F30002E433243104EB0420ED0104EB0420BD072
:100F4000B0F1804F08D00E4EB04205D00D4EB042E9
:100F500002D00D4EB04206D14FF6FD76314044F03E
:100F60000106314305E04FF6F576314044F00106C5
:100F7000314302830184F0BD002C01400034014064
:100F80000004004000080040000C0040F0B50C4692
:100F90001546002200210026078C4FF6EF7C07EA59
:100FA0000C070784028B018C4FF6FF7707EA0416C3
:100FB00040F6FF473A404FF6FF7707EA03373A43D8
:100FC0004FF6FF7707EA05273A43114FB8420ED094
:100FD000104FB8420BD0B0F1804F08D00E4FB8423E
:100FE00005D00E4FB84202D00D4FB84206D14FF691
:100FF000DF77394046F01007394305E04FF65F7759
:10100000394044F01007394302830184F0BD0000E9
:10101000002C014000340140000400400008004062
:10102000000C0040F0B50C461546002200210026B9
:10103000078C4FF6FF6C07EA0C070784828B018C44
:101040004FF6FF7707EA04264FF60C773A404FF643
:10105000FF7707EA03172F433A43114FB8420ED0E8
:10106000104FB8420BD0B0F1804F08D00E4FB842AD
:1010700005D00E4FB84202D00D4FB84206D14FF600
:10108000FF57394046F48077394305E04FF2FF5768
:10109000394044F48077394382830184F0BD0000F5
:1010A000002C0140003401400004004000080040D2
:1010B000000C0040F0B50C46154600220021002629
:1010C000078C4EF6FF7C07EA0C070784828B018CA5
:1010D0004FF6FF7707EA043640F6FF473A404FF6EF
:1010E000FF7707EA05273A434FF6FF7707EA03370A
:1010F0003A43114FB8420ED0104FB8420BD0B0F166
:10110000804F08D00E4FB84205D00E4FB84202D0E3
:101110000D4FB84206D14DF6FF77394046F480575F
:10112000394305E047F6FF57394044F480573943C7
:1011300082830184F0BD0000002C01400034014096
:101140000004004000080040000C00401FB50121D1
:10115000C802FFF79BFD40F21F30ADF8040040F2DB
:10116000CF70ADF808000020ADF80600ADF80A0019
:101170008DF80C0001A90D4800F0DCF901221146A0
:101180000A4800F049F919208DF8000002208DF876
:1011900001008DF8020001208DF803006846FFF77A
:1011A000D3FA0121014800F0C0F81FBD002C014016
:1011B00010B50121114800F0C7F8F0B101210F4826
:1011C00000F0B0F80E4801880E4800F084F90C4891
:1011D00000880D4991F90010084409490880084623
:1011E0000088632802DBFF20074908700448008854
:1011F000002802DC01200449087010BD002C0140C9
:1012000018000020000400401A0000202DE9F041E1
:101210000421080700F098F8002863D0042108078B
:1012200000F080F84FF0804000F08BF805462E4823
:10123000007818B100202C49087050E02B48008835
:10124000281A86B2002E49DD06EB4601C800FFF7DA
:1012500055F8044621462648FFF712F80746254967
:101260003846FFF787F838D823482449097840F8EA
:10127000217022490978481CC11700EB5171C9102F
:10128000A0EBC1011D4A11701D480078082804DA3E
:101290001B480078401C1A4908704FF000080024D1
:1012A00008E0154850F824104046FEF75FFF8046DE
:1012B000601CC4B2124800788442F2DB1048007807
:1012C000FFF725F8044621464046FEF7D9FF0D49B1
:1012D000086001200C49087000BF00BF00BF034830
:1012E000058000BFBDE8F08124000020220000201E
:1012F000007C12490000C842C003002025000020E5
:10130000260000201C0000202000002021B10288BF
:1013100042F08002028004E002884FF67F731A4098
:1013200002807047CA430282704721B1028842F0AE
:101330000102028004E002884FF6FE731A40028028
:1013400070470146088F704730B5024600200023E1
:101350000024158A05EA0103958905EA010413B101
:101360000CB1012000E0002030BD000070B5054642
:101370000C46244885420ED0234885420BD0B5F157
:10138000804F08D02148854205D02148854202D0AF
:101390002048854200D100E000BF208850B9238951
:1013A000A28861882846FFF7B1FDE188284600F051
:1013B00094F825E0208804280AD12389A28861882E
:1013C0002846FFF7E3FDE188284600F08FF817E094
:1013D000208808280AD12389A28861882846FFF737
:1013E00021FEE188284600F08EF809E02389A288D2
:1013F00061882846FFF75EFEE188284600F08CF8F9
:1014000070BD0000002C0140003401400004004089
:1014100000080040000C00401AB183890B4383810F
:1014200002E083898B4383817047000070B50024FC
:1014300000220023058C4FF6FE7635400584028C91
:101440008388048B4FF68F752C40B51E2C400D8879
:101450002C43751E2A400D892A434D882A43144D7A
:10146000A8420BD0134DA84208D0134DA84205D076
:10147000124DA84202D0124DA84213D14FF6F77573
:101480002A404D892A434FF6FB752A408D882A430E
:101490004FF6FF652B404FF6FF552B408D892B43B0
:1014A000CD892B4383800483CD888586028470BDDB
:1014B000002C014000340140004001400044014044
:1014C000004801400A460021018B4FF6F77319408E
:1014D00011430183704781867047028B4FF6F37387
:1014E0001A400283028B0A4302837047028B4FF239
:1014F000FF331A400283028B4FF6FF7303EA012386
:101500001A4302837047828B4FF6F3731A4082832B
:10151000828B0A4382837047828B4FF2FF331A40DB
:101520008283828B4FF6FF7303EA01231A4382837F
:1015300070470000002202881D4B98420ED01D4BC0
:1015400098420BD0B0F1804F08D01B4B984205D089
:101550001A4B984202D01A4B984204D14FF68F731F
:101560001A404B881A43174B984207D0164B9842A3
:1015700004D04FF6FF431A40CB881A4302808B8871
:1015800083850B8803850A4B98420BD0094B984200
:1015900008D00E4B984205D00D4B984202D00D4B0F
:1015A000984201D10B7A03860123838270470000A1
:1015B000002C0140003401400004004000080040BD
:1015C000000C0040001000400014004000400140AA
:1015D000004401400048014010B586B00446012196
:1015E00044F20500FFF752FB4FF40070ADF8140011
:1015F00003208DF8160018208DF8170005A9124851
:10160000FEF7AAFF4FF48060ADF8140004208DF8B7
:10161000170005A90C48FEF79FFF01940020ADF8C4
:101620000800ADF80A00ADF80C00ADF810000C2071
:10163000ADF80E0001A9054800F024F80121034887
:1016400000F006F806B010BD000801400038014067
:1016500021B1828942F40052828104E082894DF6F0
:10166000FF731A408281704702460020B1F5007F67
:1016700000D100BF13880B400BB1012000E0002017
:10168000704700002DE9F04786B005460E4600245D
:10169000A24600BFA1460027B08900B100BF2F4677
:1016A0002C8A4CF6FF700440F08804432C82AC89ED
:1016B0004EF6F3100440B08831890843718908431D
:1016C0000443AC81AC8A4FF6FF400440B089044328
:1016D000AC8201A8FFF7EAFA1F48874202D1DDF881
:1016E00010A001E0DDF80CA0A88900F4004040B192
:1016F0000AEBCA0000EB0A1031684900B0FBF1F8B0
:1017000007E00AEBCA0000EB0A1031688900B0FB61
:10171000F1F86420B8FBF0F004012009642101FB1A
:101720001089A88900F4004040B1322000EBC900C4
:10173000B0FBF1F000F00700044308E0322000EBBA
:1017400009106421B0FBF1F000F00F0004432C817C
:1017500006B0BDE8F087000000380140C1F3080280
:101760008280704700BFFEE70FB4054B10B503A998
:10177000044A029800F018F810BC5DF814FB000051
:101780003D1900083C00002002E008C8121F08C1F3
:10179000002AFAD170477047002001E001C1121FF2
:1017A000002AFBD1704700002DE9FF4F89B09B460E
:1017B0000446002506E025280BD05A460B99904791
:1017C000641C6D1C20780028F5D10DB02846BDE8BA
:1017D000F08F0027B8460122474900E0074314F87C
:1017E000013F203B02FA03F00842F7D120782E286F
:1017F00019D114F8010F47F004072A280ED06FF012
:101800002F022078A0F1300109290CD808EB8801BB
:1018100002EB410100EB0108641CF2E70A98641C2A
:1018200050F8048B0A9020780028CED0642808D085
:10183000692806D075281ED05A460B9990476D1C12
:1018400058E00A994FF00A0901C90A91002802DA02
:1018500040422D2102E0390504D52B218DF82010BE
:10186000012103E0F90704D02021F7E78A4608AEFA
:101870000DE00021FAE70A994FF00A0901C90A911F
:10188000F7E74946FEF78AFD303106F8011D0028CA
:10189000F7D1ADEB060000F12009780701D44FF035
:1018A0000108C84502DDA8EB090000E000208046E1
:1018B000002706E008A85A46C05D0B9990476D1CAA
:1018C0007F1C5745F6DB04E030205A460B999047C1
:1018D0006D1CB8F10001A8F10108F5DC05E016F86F
:1018E000010B5A460B9990476D1CB9F10001A9F103
:1018F0000109F4DC641C65E70928010010B5042027
:10190000FFF7C0FA094800680949B0FBF1F009493E
:1019100008700846007800EB4001C1EBC0104FF69C
:10192000FF7101EAC0000449088010BD00000020DA
:1019300000127A00140000201600002070B5044642
:101940000D4600BF40210548FFF78EFE0028F9D064
:10195000E1B20248FFF702FF204670BD00380140A7
:101960000020FFF70DFA4FF4A060FEF725FFFFF708
:10197000C5FF4FF41650FFF72FFEFFF73BF8FEF7B9
:1019800081FEFFF7E3FBFEF791FD13A2002108465D
:10199000FFF712F9FEF730FF1DE011480078D0B1D3
:1019A00000200F4908700F480068FEF7B5FC044698
:1019B0000323224600212820FFF7B4F809480068D5
:1019C000FEF726FF07480068FEF7A6FC04462146FE
:1019D00005A0FFF7C9FEE0E752504D3A00000000B5
:1019E000200000201C00002053706565643A20250B
:1019F000640D0A0010B50246012000E050430B1EA2
:101A0000A1F10104E1B2F9D110BD00000000000015
:101A100000000000000000000000000000F80000CE
:101A20000000000000333000000000100C06100C15
:101A30000600000000000000000040C07840C078B0
:101A40004000043F04043F040400007088FC083098
:101A50000000001820FF211E0000F008F000E01830
:101A6000000000211C031E211E0000F008887000E9
:101A700000001E2123241927211010160E0000003B
:101A800000000000000000000000000000E018045A
:101A90000200000000071820400000020418E000C7
:101AA00000000040201807000000404080F0804007
:101AB00040000202010F01020200000000F00000DD
:101AC00000000101011F01010100000000000000F1
:101AD000000080B070000000000000000000000066
:101AE00000000001010101010101000000000000EF
:101AF00000000030300000000000000000008060A6
:101B00001804006018060100000000E0100808102A
:101B1000E000000F102020100F00001010F800004F
:101B200000000020203F20200000007008080888E6
:101B300070000030282422213000003008888848B6
:101B400030000018202020110E000000C02010F8E6
:101B5000000000070424243F240000F808888808B7
:101B600008000019212020110E0000E010888818BC
:101B70000000000F112020110E0000380808C8389E
:101B800008000000003F000000000070880808887E
:101B90007000001C222121221C0000E01008081007
:101BA000E0000000312222110F00000000C0C00040
:101BB0000000000000303000000000000080000045
:101BC0000000000080600000000000008040201045
:101BD000080000010204081020004040404040403E
:101BE00040000404040404040400000810204080A1
:101BF00000000020100804020100007048080808D6
:101C0000F0000000003036010000C030C828E810A5
:101C1000E0000718272423140B000000C038E00060
:101C20000000203C23020227382008F888888870AA
:101C30000000203F202020110E00001CE0180408A6
:101C40003000000007182020100008F808080810CD
:101C5000E000203F202020100F0008F88888E808C6
:101C60001000203F20202320180008F88888E8086A
:101C70001000203F200003000000C0300808083892
:101C8000000007182020221E020008F808000008A3
:101C9000F808203F210101213F20000808F808082A
:101CA00000000020203F2020000000000808F80865
:101CB0000800C08080807F00000008F888C02818D5
:101CC0000800203F20012638200008F80800000006
:101CD0000000203F20202020300008F8F800F8F80D
:101CE0000800203F003F003F200008F830C00008F7
:101CF000F808203F200007183F00E01008080810EF
:101D0000E0000F10202020100F0008F80808080835
:101D1000F000203F210101010000E0100808081038
:101D2000E0000F18242438504F0008F8888888886D
:101D30007000203F2000030C302000708808080845
:101D400038000038202121221C00180808F8080853
:101D500018000000203F2000000008F808000008DC
:101D6000F808001F202020201F000878880000C8E5
:101D70003808000007380E010000F80800F80008D5
:101D8000F800033C0700073C0300081868808068DF
:101D9000180820302C03032C30200838C800C8381D
:101DA00008000000203F2000000010080808C83884
:101DB00008002038262120201800000000FE020222
:101DC00002000000007F40404000000C30C00000D6
:101DD0000000000000010638C00000020202FE0000
:101DE0000000004040407F000000000004020202AA
:101DF00004000000000000000000000000000000DF
:101E000000008080808080808080000202040000CA
:101E100000000000000000000000000080808080C2
:101E200000000019242222223F2008F800808000B0
:101E30000000003F112020110E0000000080808073
:101E40000000000E1120202011000000008080887A
:101E5000F800000E112020103F20000080808080BC
:101E60000000001F222222221300008080F08888B8
:101E700088180020203F2020000000008080808003
:101E80008000006B94949493600008F80080808038
:101E90000000203F210000203F2000809898000093
:101EA00000000020203F20200000000000809898C3
:101EB000000000C08080807F000008F80000808063
:101EC0008000203F24022D302000000808F8000088
:101ED00000000020203F2020000080808080808043
:101EE0008000203F20003F20003F808000808080D5
:101EF0000000203F210000203F20000080808080E3
:101F00000000001F202020201F0080800080800013
:101F1000000080FFA12020110E00000000808080C2
:101F20008000000E112020A0FF8080808000808033
:101F3000800020203F212000010000008080808060
:101F400080000033242424241900008080E0808055
:101F500000000000001F20200000808000000080A2
:101F60008000001F202020103F2080808000008003
:101F7000808000010E300806010080800080008013
:101F800080800F300C030C300F00008080008080B8
:101F900080000020312E0E312000808080000080E3
:101FA000808080818E701806010000808080808093
:101FB00080000021302C2221300000000000807CB5
:101FC000020200000000003F404000000000FF004F
:101FD000000000000000FF0000000002027C800002
:101FE00000000040403F0000000000060101020226
:101FF0000404000000000000000000202020A06079
:1020000000FF608040201800000000000000000079
:102010000000000000000000000020100806014041
:10202000807F000102040810100000000000000082
:1020300000000000000000000000008060F80710B1
:10204000901011161010D0100000000000000000C9
:1020500000000000000000000000010000FF404000
:10206000415E4040704E41404000000000000000D2
:10207000000000000000000000001010D0FF905091
:1020800020504C434C502040400000000000000015
:1020900000000000000000000000040300FF0041F9
:1020A0004458414E60584740400000000000000086
:1020B000000000000000000000001060028C00FE24
:1020C00002F202FE00F800FF000000000000000025
:1020D0000000000000000000000004047E018047B2
:1020E000300F10270047807F000000000000000034
:1020F00000000000000000000000404042CC0080D2
:102100008888FF8888FF8888800000000000000021
:10211000000000000000000000000040201F2040E0
:10212000504C4340405F4040400000000000000031
:102130000000000000000000000000007C40404063
:1021400040FF40404040FC00000000000000000054
:1021500000000000000000000000007C4040404003
:10216000407F4040404040FC000000000000000074
:102170000000000000000000000000F80122A0A202
:10218000A222FE22AA3202FE00000000000000008F
:102190000000000000000000000000FF0010130A13
:1021A0004B20170C133880FF0000000000000000D7
:1021B00000000000000000000000008060F807043C
:1021C000E4A4A4BFA4A4E4040000000000000000F4
:1021D00000000000000000000000010000FF40407F
:1021E0007F4A4A4A4A4A7F404000000000000000FF
:1021F0000000000000000000000000001C22000899
:102200000000002040000000881700085C22000841
:1022100040000020A00700009817000800A24A0410
:102220000000000000000000010203040607080986
:10223000000000000000010000000000000000009D
:102240000100000000000001020304010203040673
:0C22500007080902040608000000000056
:0400000508000131BD
:00000001FF
